:020000040000FA
:100000000A128A11E52F00308A000408840A820748
:1000100000343134323433343434353400345334EE
:1000200069347334743465346D346134203442344B
:100030006C346F34713475346534613464346F34C6
:10004000003443346C3461347634653420344934BC
:100050006E3463346F3472347234653463347434A0
:100060006134003449346E34673472346534733427
:1000700061347234203443346C3461347634653402
:100080003A34003443346C3461347634653420348B
:1000900043346F347234723465346334743461348D
:0200A00000342A
:10083000F030831603138605F03086048113080018
:1008400001300A128A11BD240A128A110830F400FC
:10085000C930F300F30B2A2CF40B2A2C2F2C0800A0
:100860003134323433344134343435343634423430
:1008700037343834393443342A343034233444342C
:100880007E088A007F0882000A128A1140240A1218
:100890008A118000840A04087D0603190034FF0AC7
:1008A0000319FE0A442C622C730884000A128A1170
:1008B00003200A128A110A128A11F3240A128A11D9
:1008C0000130F307730884000A128A1103200A1208
:1008D0008A11003A031D6D2C6E2C542C0800F60072
:1008E000023076020318752C762C812C74080F398F
:1008F0008038F70077080A128A11BD240A128A117B
:100900008B2C74080F39C038F70077080A128A1147
:10091000BD240A128A117508F3000A128A115324A1
:100920000A128A1108008316031387012730F40086
:10093000F530F300F30B9A2CF40B9A2C02300A12C8
:100940008A11BD240A128A1128300A128A11BD2484
:100950000A128A1101300A128A11BD240A128A1160
:100960000C300A128A11BD240A128A1106300A12AA
:100970008A11BD240A128A110800F200F0307205B3
:10098000F0008312031307080F3970048700071063
:10099000871400008312031387100330F10097308F
:1009A000F000F00BD12CF10BD12CD62C7208F000FA
:1009B00004300310F00DFF3E031DD92C83120313E6
:1009C00007080F397004870087140000831203138F
:1009D00087100830F100C930F000F00BED2CF10B5E
:1009E000ED2CF22C0800F200F0307205F0008312BA
:1009F000031307080F3970048700071487140000D9
:100A00008312031387100330F1009730F000F00BCE
:100A1000072DF10B072D0C2D7208F0000430031088
:100A2000F00DFF3E031D0F2D8312031307080F392E
:100A300070048700871400008312031387100830A6
:100A4000F100C930F000F00B232DF10B232D282DE0
:100A500008000130F2020030031CF303F302720AB3
:100A6000031D362D730A031D362D372D442DF0013D
:100A7000F101802D0130F0070130F1070130F20261
:100A80000030031CF303F302700884008313000892
:100A900003194B2D4C2D6E2D710884000A128A11FA
:100AA00003200A128A11003A0319572D582D6E2D72
:100AB0007208730403195D2D5E2D6E2D710884007C
:100AC0000A128A1103200A128A11F40070088400A5
:100AD0000008740603196D2D6E2D3A2D71088400DF
:100AE0000A128A1103200A128A11F4007008840085
:100AF0000008F50074087502F000F101031CF10311
:100B000008003C3084002030F0001030F1008313E6
:100B10000008F200040AF3007008840072088000E4
:100B2000040AF00073088400F10B872D831203136D
:100B3000B001B101B2018312031331083204031D65
:100B4000A22DA32DC82DFE3086004230F000F00B00
:100B5000A72D0000AD2D2008B00083120313061E40
:100B6000B22DB32DAB2DB62D2108B000861EB92DA8
:100B7000BA2DB42DBD2D2208B000061FC02DC12DE9
:100B8000BB2DC42D2308B000861FC72DC82DC22D34
:100B900031033204031DCD2DCE2DF32DFD30860003
:100BA0004230F000F00BD22D0000D82D2408B00008
:100BB00083120313061EDD2DDE2DD62DE12D250813
:100BC000B000861EE42DE52DDF2DE82D2608B000AF
:100BD000061FEB2DEC2DE62DEF2D2708B000861F0C
:100BE000F22DF32DED2D023031063204031DF92DC7
:100BF000FA2D1F2EFB3086004230F000F00BFE2D48
:100C00000000042E2808B00083120313061E092ECC
:100C10000A2E022E0D2E2908B000861E102E112E2F
:100C20000B2E142E2A08B000061F172E182E122E77
:100C30001B2E2B08B000861F1E2E1F2E192E0330D0
:100C400031063204031D252E262E4B2EF73086004A
:100C50004230F000F00B2A2E0000302E2C08B0009D
:100C600083120313061E352E362E2E2E392E2D08F6
:100C7000B000861E3C2E3D2E372E402E2E08B00092
:100C8000061F432E442E3E2E472E2F08B000861FEF
:100C90004A2E4B2E452E0130B1070318B20A003000
:100CA000B2073208803AFF0080307F02031D5A2EBF
:100CB00004303102031C5D2E5E2E9B2D8312031324
:100CC0003008080083120313B301B4017130831696
:100CD00003138F008316031789010A128A119324C4
:100CE0000A128A110A128A1118240A128A1183160A
:100CF00003130810881008110A128A1120240A12FE
:100D00008A11F4012A30F50000300A128A116F248A
:100D10000A128A11C0300A128A11BD240A128A11DD
:100D200083120313CC010A128A1181250A128A1137
:100D300083120313BB003B0803199F2EA02EB02E75
:100D40002A300A128A11F3240A128A118312031319
:100D50004C084D3E84003B08831380000130CC07D3
:100D60000230FA000430F900BA30F800F80BB62E61
:100D7000F90BB62EFA0BB62E0000053083120313C2
:100D80004C02031CC42EC52E932E09304C020318AE
:100D9000CA2ECB2E932E4C084D3E84008313800127
:100DA0004D30F0000130F1000530F2000030F3006A
:100DB0000A128A1129250A128A1170087104031D6A
:100DC000E22EE32E2F2F0A128A1120240A128A11F2
:100DD000F4013A30F50000300A128A116F240A1229
:100DE0008A1183120313B501B60183120313081489
:100DF0000630FA001330F900AD30F800F80BFE2E83
:100E0000F90BFE2EFA0BFE2E052F8312031308108A
:100E10000630FA001330F900AD30F800F80B0E2F51
:100E2000F90B0E2FFA0B0E2F152F0130831203131F
:100E3000B5070318B60A0030B6073608803AFF0037
:100E400080307F02031D262F06303502031C292F18
:100E50002A2FF52E83120313B301B401D42F0130CE
:100E600083120313B3070318B40A0030B4070A123D
:100E70008A1120240A128A11F4011930F500003079
:100E80000A128A116F240A128A1183120313B701FE
:100E9000B8018312031388140430FA000C30F900EF
:100EA0003330F800F80B522FF90B522FFA0B522F58
:100EB000592F8312031388100830FA001B30F900F1
:100EC0002730F800F80B622FF90B622FFA0B622F14
:100ED000013083120313B7070318B80A0030B807AC
:100EE0003808803AFF0080307F02031D792F0430DC
:100EF0003702031C7C2F7D2F492F831203133408E4
:100F0000803AFF0080307F02031D882F03303302B8
:100F1000031C8B2F8C2FD42F0A128A1120240A1223
:100F20008A11F4010730F50000300A128A116F248B
:100F30000A128A1183120313B901BA01831203132F
:100F400008150430FA000C30F9003330F800F80BC3
:100F5000A72FF90BA72FFA0BA72FAE2F831203137E
:100F600008110630FA001330F900AD30F800F80B24
:100F7000B72FF90BB72FFA0BB72FBE2F0130831203
:100F80000313B9070318BA0A0030BA073A08803ABF
:100F9000FF0080307F02031DCF2F10303902031C69
:100FA000D22FD32F9E2F2A2F1530FA004B30F90065
:100FB000BE30F800F80BDA2FF90BDA2FFA0BDA2F24
:100FC00000007C2E0A128A11002883134C30FD0089
:100FD0000430FE003030FF003C3084000A128A11D9
:100FE00044240A128A11CC01CD01CE01CF01D001D7
:100FF000D101D201D301D40183010A128A11622ED8
:04400E00D520FF3F7B
:00000001FF
